:10100000808200205563010083BE0200416301001D
:1010100041630100416301004163010000000000E1
:101020000000000000000000000000000965010051
:101030004163010000000000D5640100416301002C
:10104000C1660100AFEA0200C1660100C16601008D
:10105000C1660100C1660100C1660100C1660100F0
:1010600065EA0200C1660100C166010099EA02005A
:10107000C1660100C1660100C1660100C1660100D0
:10108000C1660100C1660100C1660100C1660100C0
:10109000C1660100C1660100C1660100C1660100B0
:1010A000C1660100C1660100C1660100C1660100A0
:1010B000C1660100C1660100C1660100C166010090
:1010C000C1660100C1660100C1660100C166010080
:1010D000C1660100C1660100C1660100C166010070
:1010E000C1660100C1660100C1660100C166010060
:1010F000C1660100C1660100C1660100C166010050
:1011000081F0004102E000BF83F0004330B54FEAB8
:1011100041044FEA430594EA050F08BF90EA020F25
:101120001FBF54EA000C55EA020C7FEA645C7FEAB8
:10113000655C00F0E2804FEA5454D4EB5555B8BFDB
:101140006D420CDD2C4480EA020281EA030382EA4C
:10115000000083EA010180EA020281EA0303362DDE
:1011600088BF30BD11F0004F4FEA01314FF4801CB1
:101170004CEA113102D0404261EB410113F0004FC3
:101180004FEA03334CEA133302D0524263EB43037A
:1011900094EA050F00F0A780A4F10104D5F1200E18
:1011A0000DDB02FA0EFC22FA05F2801841F1000173
:1011B00003FA0EF2801843FA05F359410EE0A5F147
:1011C00020050EF1200E012A03FA0EFC28BF4CF078
:1011D000020C43FA05F3C01851EBE37101F000452E
:1011E00007D54FF0000EDCF1000C7EEB00006EEB3B
:1011F0000101B1F5801F1BD3B1F5001F0CD34908C5
:101200005FEA30004FEA3C0C04F101044FEA44521B
:1012100012F5800F80F09A80BCF1004F08BF5FEAA2
:10122000500C50F1000041EB045141EA050130BD82
:101230005FEA4C0C404141EB0101013C28BFB1F594
:10124000801FE9D291F0000F04BF01460020B1FADF
:1012500081F308BF2033A3F10B03B3F120020CDAB2
:101260000C3208DD02F1140CC2F10C0201FA0CF090
:1012700021FA02F10CE002F11402D8BFC2F1200CF5
:1012800001FA02F120FA0CFCDCBF41EA0C019040AB
:10129000E41AA2BF01EB0451294330BD6FEA0404F4
:1012A0001F3C1CDA0C340EDC04F11404C4F12002DF
:1012B00020FA04F001FA02F340EA030021FA04F3F1
:1012C00045EA030130BDC4F10C04C4F1200220FA48
:1012D00002F001FA04F340EA0300294630BD21FA86
:1012E00004F0294630BD94F0000F83F4801306BF4C
:1012F00081F480110134013D4EE77FEA645C18BF40
:101300007FEA655C29D094EA050F08BF90EA020FD6
:1013100005D054EA000C04BF1946104630BD91EACE
:10132000030F1EBF0021002030BD5FEA545C05D1D1
:101330004000494128BF41F0004130BD14F5800410
:101340003CBF01F5801130BD01F0004545F0FE4184
:1013500041F470014FF0000030BD7FEA645C1ABFB9
:10136000194610467FEA655C1CBF0B46024650EAF0
:10137000013406BF52EA033591EA030F41F400211C
:1013800030BD00BF90F0000F04BF0021704730B5A2
:101390004FF4806404F132044FF000054FF0000177
:1013A00050E700BF90F0000F04BF0021704730B538
:1013B0004FF4806404F1320410F0004548BF40420D
:1013C0004FF000013EE700BF42004FEAE2014FEA62
:1013D00031014FEA02701FBF12F07F4393F07F4F3D
:1013E00081F06051704732F07F4208BF704793F040
:1013F0007F4F04BF41F40021704730B54FF4607453
:1014000001F0004521F000411CE700BF50EA010255
:1014100008BF704730B54FF000050AE050EA0102FE
:1014200008BF704730B511F0004502D5404261EB6E
:1014300041014FF4806404F132045FEA915C3FF4AF
:10144000D8AE4FF003025FEADC0C18BF03325FEA4C
:10145000DC0C18BF033202EBDC02C2F1200300FAFD
:1014600003FC20FA02F001FA03FE40EA0E0021FA22
:1014700002F11444BDE600BF70B54FF0FF0C4CF410
:10148000E06C1CEA11541DBF1CEA135594EA0C0FC2
:1014900095EA0C0F00F0DEF82C4481EA030621EAFD
:1014A0004C5123EA4C5350EA013518BF52EA033538
:1014B00041F4801143F4801338D0A0FB02CE4FF0EA
:1014C0000005E1FB02E506F00042E0FB03E54FF01A
:1014D0000006E1FB03569CF0000F18BF4EF0010E12
:1014E000A4F1FF04B6F5007F64F5407404D25FEA0E
:1014F0004E0E6D4146EB060642EAC62141EA5551C1
:101500004FEAC52040EA5E504FEACE2EB4F1FD0C02
:1015100088BFBCF5E06F1ED8BEF1004F08BF5FEA80
:10152000500E50F1000041EB045170BD06F0004632
:1015300046EA010140EA020081EA0301B4EB5C04DF
:10154000C2BFD4EB0C0541EA045170BD41F48011D7
:101550004FF0000E013C00F3AB8014F1360FDEBFFC
:10156000002001F0004170BDC4F10004203C35DAD8
:101570000C341BDC04F11404C4F1200500FA05F35B
:1015800020FA04F001FA05F240EA020001F00042FC
:1015900021F0004110EBD37021FA04F642EB060172
:1015A0005EEA430E08BF20EAD37070BDC4F10C049C
:1015B000C4F1200500FA04F320FA05F001FA04F260
:1015C00040EA020001F0004110EBD37041F100014C
:1015D0005EEA430E08BF20EAD37070BDC4F1200557
:1015E00000FA05F24EEA020E20FA04F301FA05F2BF
:1015F00043EA020321FA04F001F0004121FA04F267
:1016000020EA020000EBD3705EEA430E08BF20EA36
:10161000D37070BD94F0000F0FD101F00046400070
:1016200041EB010111F4801F08BF013CF7D041EAF2
:10163000060195F0000F18BF704703F000465200F6
:1016400043EB030313F4801F08BF013DF7D043EAC7
:101650000603704794EA0C0F0CEA135518BF95EA7D
:101660000C0F0CD050EA410618BF52EA4306D1D104
:1016700081EA030101F000414FF0000070BD50EA23
:10168000410606BF1046194652EA430619D094EAAD
:101690000C0F02D150EA013613D195EA0C0F05D197
:1016A00052EA03361CBF104619460AD181EA0301EB
:1016B00001F0004141F0FE4141F470014FF00000A3
:1016C00070BD41F0FE4141F4780170BD70B54FF03E
:1016D000FF0C4CF4E06C1CEA11541DBF1CEA1355BE
:1016E00094EA0C0F95EA0C0F00F0A7F8A4EB0504A0
:1016F00081EA030E52EA03354FEA013100F0888097
:101700004FEA03334FF0805545EA131343EA12635F
:101710004FEA022245EA111545EA10654FEA002614
:101720000EF000419D4208BF964244F1FD0404F5CD
:10173000407402D25B084FEA3202B61A65EB030529
:101740005B084FEA32024FF480104FF4002CB6EBE6
:10175000020E75EB030E22BFB61A754640EA0C0066
:101760005B084FEA3202B6EB020E75EB030E22BFA6
:10177000B61A754640EA5C005B084FEA3202B6EBE7
:10178000020E75EB030E22BFB61A754640EA9C00A6
:101790005B084FEA3202B6EB020E75EB030E22BF76
:1017A000B61A754640EADC0055EA060E18D04FEA34
:1017B000051545EA16754FEA06164FEAC30343EAD4
:1017C00052734FEAC2025FEA1C1CC0D111F4801FA1
:1017D0000BD141EA00014FF000004FF0004CB6E79A
:1017E00011F4801F04BF01430020B4F1FD0C88BF39
:1017F000BCF5E06F3FF6AFAEB5EB030C04BFB6EB44
:10180000020C5FEA500C50F1000041EB045170BD36
:101810000EF0004E4EEA113114EB5C04C2BFD4EB63
:101820000C0541EA045170BD41F480114FF0000EE7
:10183000013C90E645EA060E8DE60CEA135594EA63
:101840000C0F08BF95EA0C0F3FF43BAF94EA0C0F66
:101850000AD150EA01347FF434AF95EA0C0F7FF4DB
:1018600025AF104619462CE795EA0C0F06D152EA2F
:1018700003353FF4FDAE1046194622E750EA410613
:1018800018BF52EA43067FF4C5AE50EA41047FF424
:101890000DAF52EA43057FF4EBAE12E74FEA410287
:1018A00012F5001215D211D56FF47873B3EB6252B2
:1018B00012D94FEAC12343F0004343EA505311F0D9
:1018C000004F23FA02F018BF404270474FF000006B
:1018D000704750EA013005D111F0004008BF6FF0A9
:1018E000004070474FF00000704700BF4FEA4102D0
:1018F000B2F1E04324BFB3F5001CDCF1FE5C0DD96E
:1019000001F0004C4FEAC0024CEA5070B2F1004FB7
:1019100040EB830008BF20F00100704711F0804FBA
:1019200021D113F13872BCBF01F00040704741F47F
:1019300080114FEA5252C2F11802C2F1200C10FA83
:101940000CF320FA02F018BF40F001004FEAC12367
:101950004FEAD32303FA0CFC40EA0C0023FA02F30B
:101960004FEA4303CCE77FEA625307D150EA0133E1
:101970001EBF4FF0FE4040F44000704701F00040B1
:1019800040F0FE4040F40000704700BF80F000408F
:1019900002E000BF81F0004142001FBF5FEA410347
:1019A00092EA030F7FEA226C7FEA236C6AD04FEA47
:1019B0001262D2EB1363C1BFD2184140484041408C
:1019C000B8BF5B42192B88BF704710F0004F40F43E
:1019D000000020F07F4018BF404211F0004F41F45A
:1019E000000121F07F4118BF494292EA030F3FD026
:1019F000A2F1010241FA03FC10EB0C00C3F1200339
:101A000001FA03F100F0004302D5494260EB4000C7
:101A1000B0F5000F13D3B0F1807F06D340084FEA32
:101A2000310102F10102FE2A51D2B1F1004F40EB27
:101A3000C25008BF20F0010040EA0300704749008F
:101A400040EB0000013A28BFB0F5000FEDD2B0FA2C
:101A500080FCACF1080CB2EB0C0200FA0CF0AABF4F
:101A600000EBC25052421843BCBFD04018437047ED
:101A700092F0000F81F4000106BF80F400000132F3
:101A8000013BB5E74FEA41037FEA226C18BF7FEACA
:101A9000236C21D092EA030F04D092F0000F08BF0C
:101AA0000846704790EA010F1CBF0020704712F0F3
:101AB0007F4F04D1400028BF40F00040704712F132
:101AC00000723CBF00F50000704700F0004343F097
:101AD000FE4040F4000070477FEA226216BF0846CD
:101AE0007FEA23630146420206BF5FEA412390EA90
:101AF000010F40F4800070474FF0000304E000BF86
:101B000010F0004348BF40425FEA000C08BF704736
:101B100043F0964301464FF000001CE050EA0102FA
:101B200008BF70474FF000030AE000BF50EA01020F
:101B300008BF704711F0004302D5404261EB4101FC
:101B40005FEA010C02BF84460146002043F0B64321
:101B500008BFA3F18053A3F50003BCFA8CF2083A46
:101B6000A3EBC25310DB01FA02FC634400FA02FC4F
:101B7000C2F12002BCF1004F20FA02F243EB020056
:101B800008BF20F00100704702F1200201FA02FCB8
:101B9000C2F1200250EA4C0021FA02F243EB0200AB
:101BA00008BF20EADC7070474FF0FF0C1CEAD052EF
:101BB0001EBF1CEAD15392EA0C0F93EA0C0F6FD0B0
:101BC0001A4480EA010C400218BF5FEA41211ED08E
:101BD0004FF0006343EA501043EA5111A0FB01317A
:101BE0000CF00040B1F5000F3EBF490041EAD3714F
:101BF0005B0040EA010062F17F02FD2A1DD8B3F1CB
:101C0000004F40EBC25008BF20F00100704790F039
:101C1000000F0CF0004C08BF49024CEA502040EA8B
:101C200051207F3AC2BFD2F1FF0340EAC250704751
:101C300040F400004FF00003013A5DDC12F1190F8F
:101C4000DCBF00F000407047C2F10002410021FA01
:101C500002F1C2F1200200FA02FC5FEA310040F119
:101C6000000053EA4C0308BF20EADC70704792F092
:101C7000000F00F0004C02BF400010F4000F013ACA
:101C8000F9D040EA0C0093F0000F01F0004C02BFC5
:101C9000490011F4000F013BF9D041EA0C018FE734
:101CA0000CEAD15392EA0C0F18BF93EA0C0F0AD03A
:101CB00030F0004C18BF31F0004CD8D180EA010060
:101CC00000F00040704790F0000F17BF90F0004FF9
:101CD000084691F0000F91F0004F14D092EA0C0FDB
:101CE00001D142020FD193EA0C0F03D14B0218BF6E
:101CF000084608D180EA010000F0004040F0FE40B4
:101D000040F40000704740F0FE4040F4400070474F
:101D10004FF0FF0C1CEAD0521EBF1CEAD15392EACE
:101D20000C0F93EA0C0F69D0A2EB030280EA010CBE
:101D300049024FEA402037D04FF0805343EA111157
:101D400043EA10130CF000408B4238BF5B0042F1B5
:101D50007D024FF4000C8B4224BF5B1A40EA0C005A
:101D6000B3EB510F24BFA3EB510340EA5C00B3EB8C
:101D7000910F24BFA3EB910340EA9C00B3EBD10F7A
:101D800024BFA3EBD10340EADC001B0118BF5FEACC
:101D90001C1CE0D1FD2A3FF650AF8B4240EBC250F5
:101DA00008BF20F0010070470CF0004C4CEA5020B6
:101DB0007F32C2BFD2F1FF0340EAC250704740F405
:101DC00000004FF00003013A37E792F0000F00F0F7
:101DD000004C02BF400010F4000F013AF9D040EA75
:101DE0000C0093F0000F01F0004C02BF490011F409
:101DF000000F013BF9D041EA0C0195E70CEAD15301
:101E000092EA0C0F08D142027FF47DAF93EA0C0FE7
:101E10007FF470AF084676E793EA0C0F04D14B02CB
:101E20003FF44CAF08466EE730F0004C18BF31F07D
:101E3000004CCAD130F000427FF45CAF31F0004377
:101E40007FF43CAF5FE700BF4FF0FF3C06E000BF10
:101E50004FF0010C02E000BF4FF0010C4DF804CD33
:101E60004FEA40024FEA41037FEA226C18BF7FEA43
:101E7000236C11D001B052EA530C18BF90EA010F45
:101E800058BFB2EB030088BFC81738BF6FEAE170D4
:101E900018BF40F0010070477FEA226C02D15FEA70
:101EA000402C05D17FEA236CE4D15FEA412CE1D0DC
:101EB0005DF8040B704700BF844608466146FFE7A3
:101EC0000FB5FFF7C9FF002848BF10F1000F0FBD85
:101ED0004DF808EDFFF7F4FF0CBF012000205DF87E
:101EE00008FB00BF4DF808EDFFF7EAFF34BF012003
:101EF00000205DF808FB00BF4DF808EDFFF7E0FF9C
:101F000094BF012000205DF808FB00BF4DF808EDEC
:101F1000FFF7D2FF94BF012000205DF808FB00BF4F
:101F20004DF808EDFFF7C8FF34BF012000205DF831
:101F300008FB00BF4FEA4002B2F1FE4F0FD34FF053
:101F40009E03B3EB12620DD94FEA002343F0004326
:101F500010F0004F23FA02F018BF404270474FF0D4
:101F60000000704712F1610F01D1420205D110F05B
:101F7000004008BF6FF0004070474FF0000070470E
:101F80007BB972B90029BEBF00204FF0004106E0C6
:101F900008BF00281CBF6FF000414FF0FF3000F079
:101FA00057B8ADF1080C6DE904CE002909DB002B10
:101FB0001ADB0BF0B9FFDDF804E0DDE9022304B021
:101FC0007047404261EB4101002B1BDB0BF0ACFF83
:101FD000DDF804E0DDE9022304B0404261EB410199
:101FE000524263EB43037047524263EB43030BF0EF
:101FF0009BFFDDF804E0DDE9022304B0404261EB21
:1020000041017047524263EB43030BF08DFFDDF853
:1020100004E0DDE9022304B0524263EB430370475E
:1020200053B94AB9002908BF00281CBF4FF0FF313F
:102030004FF0FF3000F00CB8ADF1080C6DE904CEA4
:102040000BF072FFDDF804E0DDE9022304B0704715
:10205000704700BF2DE9F00791E8F807B2E80210D9
:102060005B1854EB0C04B2E802104D4156EB0C0621
:10207000B2E802104F4158EB0C08B2E8021059EBDD
:1020800001095AEB0C0A80E8F80780410130BDE8ED
:10209000F00770472DE9F00791E8F807B2E8021061
:1020A0005B1A74EB0C04B2E802108D4176EB0C065F
:1020B000B2E802108F4178EB0C08B2E8021079EB1D
:1020C00001097AEB0C0A80E8F80780414042BDE83C
:1020D000F00770472DE9F007524290E87800B1E828
:1020E00080071740DB1918EA020854EB080419EAC4
:1020F000020955EB09051AEA020A56EB0A0678C0EE
:1021000090E87800B1E8800717407B4118EA0208A0
:1021100054EB080419EA020955EB09051AEA020A08
:1021200056EB0A0678C080410130BDE8F0077047E1
:102130002DE9F007524290E87800B1E88007174097
:10214000DB1B18EA020874EB080419EA020975EBB4
:1021500009051AEA020A76EB0A0678C090E87800C8
:10216000B1E880071740BB4118EA020874EB080485
:1021700019EA020975EB09051AEA020A76EB0A0662
:1021800078C080414042BDE8F00770472DE9F0017A
:1021900052424FF0040890E8300091E8C000A31BC1
:1021A0001340E41AF618EB1B1340ED1AFF1830C069
:1021B000C0C1B8F10108EED1BDE8F001704700BF21
:1021C00000B592E8DC072DE9DC07B1E8805702B4DE
:1021D000A7FB02510A95A8FB020BE7FB6310E9FB82
:1021E00062B00B91A8FB0351EAFB6201E7FB64B507
:1021F000E7FB6605E8FB6615CDF830B0A9FB03B632
:10220000EAFB6316ECFB6356E8FB640BE9FB641B1B
:10221000EAFB645BECFB646B0D90ACFB0230059C4D
:10222000EEFB6250E9FB6460EAFB64B0E7FB6431FB
:10223000E8FB6451069CE8FB6461E9FB64B1EAFBDE
:1022400064010E93A7FB0432079CE7FB6462E8FB82
:1022500064B2E9FB6402EAFB6412049CE9FB645388
:10226000EAFB6463089CE7FB64B3E8FB6403E9FBF7
:102270006413EAFB64230F955DF8049B99E800065C
:10228000DDF80080A9FB0854EAFB68B4DDF8108093
:10229000ECFB6804EEFB6814E9FB6824EAFB683495
:1022A000DDF80480EEFB6865E9FB68B5EAFB6805CC
:1022B000DDF81480ECFB6815EEFB6825E9FB68355A
:1022C000EAFB68450F96DDF80880AEFB0876E9FB6F
:1022D0006806EAFB6816DDF81880ECFB6826EEFB62
:1022E0006836E9FB6846EAFB6856DDF80C80ECFBD3
:1022F00068B7EEFB6807E9FB6817EAFB6827DDF8BB
:102300001C80ECFB6837EEFB6847E9FB6857EAFB8B
:10231000686708B000BD00BF2DE9F14F87B0FFF737
:102320004FFFDDF81C8008F1200888E8FF00FFBCA3
:1023300087E87F08BDE8F08F00B591E89857A3FBC8
:1023400003520195A3FB0401E3FB6420E3FB671048
:102350000292A3FB0752E3FB6802E4FB6415E3FB74
:102360006805E3FB69250391A4FB07B6E3FB692637
:10237000E3FB6A56E4FB670BE4FB682BE3FB6A5B59
:10238000E3FB6C6B0490A4FB0810E4FB6950E3FBD7
:102390006C60E3FB6EB0E7FB6721E4FB6951E4FB93
:1023A0006A61E3FB6EB1E4FB6E010592A7FB0832A4
:1023B000E4FB6A62E4FB6CB2E4FB6E02E7FB6E12C4
:1023C000E7FB6853E7FB6963E4FB6CB3E7FB6C0373
:1023D000E7FB6E13E8FB6E230695A7FB0954E7FBAA
:1023E0006AB4E7FB6C04E8FB6C14E8FB6E24E9FBC1
:1023F0006E34E8FB6865E7FB6AB5E8FB6A05E8FB55
:102400006C15E9FB6C25E9FB6E35EAFB6E4507961A
:10241000A8FB0976E8FB6A06E9FB6A16E9FB6C266D
:10242000EAFB6C36EAFB6E46ECFB6E56E8FB69B7DE
:10243000E9FB6907E9FB6A17EAFB6A27EAFB6C37E5
:10244000ECFB6C47ECFB6E57EEFB6E6700BD00BF0C
:102450002DE9F14F87B0FFF76FFFDDF81C8008F121
:10246000200888E8FF00FFBC87E87F08BDE8F08F00
:1024700030B44FF0000310F8014B11F8015B013A42
:1024800084EA050443EA0403F5D1A3F101034FEA0A
:10249000D37030BC704700BF4FF0000310F8012B21
:1024A000013943EA0203F9D1A3F101034FEAD370E2
:1024B000704700BF30B411F8014B12F8015B6C405B
:1024C00000F8014B013BF6D130BC70472DE9F00715
:1024D00091E8F807B2E802105B1854EB0C04B2E87C
:1024E00002104D4156EB0C06B2E802104F4158EB7A
:1024F0000C08B2E8021059EB01095AEB0C0A8941A9
:10250000B3F1FF3374F1FF3475F1FF3576F1000656
:1025100077F1000778F1000879F101097AF1FF3AC3
:1025200051F100015B184C414D4156F1000657F145
:10253000000758F1000859EBD1795AEB010A80E8FD
:10254000F807BDE8F00770472DE9F00791E8F807B4
:10255000B2E802105B1A74EB0C04B2E802108D4171
:1025600076EB0C06B2E802108F4178EB0C08B2E86B
:10257000021079EB01097AEB0C0A89415B184C4196
:102580004D4156F1000657F1000758F1000859EB8C
:10259000D1795AEB010A80E8F807BDE8F0077047E7
:1025A00018EB040859EB05095AEB060A5BEB070B1D
:1025B0005FF0000C4CF1000C18EB050859EB060914
:1025C0005AEB070A5BEB070B50EB0C005FF0000CBB
:1025D00051EB0C0152EB0C0263414CF1000CB8EBD7
:1025E000070879F100097AF1000A7BEB040BA84196
:1025F000B141A241B3416CF1000CBBEB050BB04102
:10260000B941AA41BB416CF1000C4CF001068CF0C1
:10261000020718EB060859EB6C095AEB6C0A7BEBC6
:102620006C0B70EB6C0471EB6C0572EB670653EB93
:102630006C076CEB6C0C18EB0C0059EB0C015AEBB3
:102640000C025BF1000354F1000455F1000556EB58
:10265000DC7657EB0C0770472DE9F14F87B0FFF799
:10266000AFFDDDF81080DDF81490DDF818A0FFF75D
:1026700097FFBDE8000FFFF793FF03B05DF8048BF1
:1026800088E8FF00BDE8F08F2DE9F14F87B0FFF734
:1026900053FEDDF81080DDF81490DDF818A0FFF788
:1026A0007FFFBDE8000FFFF77BFF03B05DF8048BF1
:1026B00088E8FF00BDE8F08F1FB50B4B01934FF486
:1026C0008C73ADF8083008238DF80A3083788DF8C4
:1026D0000B3001A9FF2301208DF80C3000F082FBA4
:1026E00005B05DF804FB00BF851101001FB50A4B62
:1026F00001934FF43673ADF8083008238DF80A3093
:1027000001A943788DF80B3000208DF80C0000F003
:1027100069FB05B05DF804FB0B160100F7B5044634
:102720000D4641B9124B1B78012B04D0019101A831
:102730000121FFF7F3FF23680E4E0F4F0733002DE3
:1027400023F0070323600CBF2046002000F026FB87
:10275000002556F8043B0BB1384698470135032D48
:10276000F7D100F08FFB23680344236003B0F0BD72
:10277000D80C002040000020DA0C00202DE9F7439F
:102780002A4C0190074601A80E46FFF7C7FFA5781F
:10279000E3784FF000091D44EDB2C8465FFA89F3B3
:1027A0009D4238D80198033020F00300002E01909C
:1027B000414618BF002000F0A7FC019D2179054487
:1027C000019589B16379627C0335002E25F00305FC
:1027D0001A44D2B2A38901950CBF2846002000F00C
:1027E00007FD019B03440193A17B79B123796BB170
:1027F000019B073323F00703002E0CBF184600206F
:10280000019304F0CDF9019B034401930198C01B8F
:1028100003B0BDE8F083A37A627A217AE0790CF004
:1028200024FA09F101098044B8E700BFD80C002060
:102830008FB572B6194B9D6AE5B9BFF34F8F184932
:10284000184BCA6802F4E0621343CB60BFF34F8FAA
:1028500000BFFDE7B4FBF6F4DAB20133002CF9D186
:1028600002F110036B440A2603F80C4C32B901A89C
:10287000A847E2E7044600230A26EDE7531E04AC0E
:1028800054FA83F4DAB2C3B2B3FBF6F706FB17339C
:10289000303304F80C3CB0FBF6F0E7E7D80C00202E
:1028A00000ED00E00400FA051FB5104B9A7A8DF890
:1028B00009205A7A8DF8082002A81A7ADB79ADF837
:1028C0000C20ADF80A3002F037FC18B1DB210320F0
:1028D000FFF7AEFF012301A88DF804300DF0C1FA17
:1028E00008B1DF21F3E705B05DF804FBD80C002048
:1028F00038B5044690B30AF023FF10B94FF0FF300B
:1029000038BD07F023FDB0F5FA7FF7D8164D17480C
:10291000AC6200F0E5F9164B28460024C3E90044F8
:102920009C6000F8024B262221460BF08BFA012313
:10293000EB702B711B23EB7140F21B332B810223B5
:10294000AB721F23AB810823AB73EFF3108572B614
:1029500000F024FD2DB962B62846D1E76FF01500CE
:10296000CEE72046CCE700BFD80C0020A928000005
:102970004000002010B5002836D1204C2378022BCF
:102980002FD059B1002A32D0023905292CD8DFE8DE
:1029900001F0030F1D2B20231378E3700121002089
:1029A000FFF7ECFEB0F5803F24DA0123237010BD61
:1029B0009378E3B1D378D3B113781A2B17D953781E
:1029C0001A2B14D91368C4F80730E7E7137823717A
:1029D000E4E71388A381E1E71388FF2B07D8A373EB
:1029E000DCE74FF0FF30E2E76FF02C00DFE76FF03D
:1029F0001500DCE76FF00B00D9E700BFD80C002012
:102A000070B50D460646E8B1E1B111F0070419D1E1
:102A100000F0A4F8C8B130460BF006F80C4E214681
:102A200086F82C002846FFF7A9FE0EF030FE96F837
:102A30002C00214602F014FCFFF736FF022333700E
:102A4000204670BD6FF01500FBE74FF0FF30F8E750
:102A5000D80C002010B5074C2378022B05D102F0CA
:102A600017FC94F82C000AF0FBFF0CF0EDF90020A5
:102A7000207010BDD80C002050B1074B03F1140298
:102A800053F8041B40F8041B9342F9D1002070470F
:102A90006FF01500704700BFE750030010B5064BFC
:102AA0001C7834B902F0A6FB044B054A5A60204654
:102AB00010BD4FF0FF30FBE7D80C00204000002095
:102AC000B926000010B5064B1C7834B902F0A6FBFD
:102AD000044B054A1A60204610BD4FF0FF30FBE75B
:102AE000D80C002040000020ED26000010B5054B5A
:102AF0001C781CB902F04AFB204610BD4FF0FF3095
:102B0000FBE700BFD80C002010B5054B1C781CB9A2
:102B10000DF0BDF9204610BD4FF0FF30FBE700BFC0
:102B2000D80C002010B5054B1C781CB90DF0B2F97B
:102B3000204610BD4FF0FF30FBE700BFD80C00204F
:102B4000024B02681A600020704700BF080D002089
:102B5000014B1B68184700BF080D0020024B186886
:102B6000003818BF01207047080D00202DE9F341FF
:102B7000284E031D04463360304603F0DBFA02287A
:102B8000054607D1234920460BF03DFB284602B0FD
:102B9000BDE8F081042836D13378072B18D13E20C8
:102BA00000F04EF878B9F378327901A943EA0223AC
:102BB0006846ADF800300BF0F2FD0028DCD0532160
:102BC0000820FFF735FE052000F07AF80028EAD04B
:102BD000314620460BF07CFBB0F5817F01D372219A
:102BE000EEE70028C8D0277894F80280384600F035
:102BF00027F80028C0D03E2FC8D1404600F060F82A
:102C00000028C3D1B8E70828C0D1024920460BF0FC
:102C100029FBBBE70C0D0020074B4FF0FF3141F6BD
:102C2000FF72C3E9001205490022C1E900221F21F9
:102C3000C3E90212704700BF00000020500D0020C1
:102C40003F280CD801380B4BC0F3421200F01F0094
:102C500053F8223023FA00F000F001007047FF28FB
:102C600006D04038C0F34212034B00F01F00EFE7DC
:102C70000120704700000020500D00200146074B46
:102C8000006849681A4603C240F48C221A6041F079
:102C9000107242F4FF625A60704700BF00000020CB
:102CA0000246024B0068516803C37047500D002074
:102CB0000246024B0068516803C3704708000020B9
:102CC0000138064BC0F3421203EB820300F01F00F1
:102CD0009B6823FA00F000F001007047000000201C
:102CE000014B1860704700BF580D002010B5FFF76A
:102CF00093FF0CF0A5FC034B1B68044603B19847F7
:102D0000204610BD580D00200B880288F0B5C3F393
:102D10000E049EB204F11803C57CC35A05352A443B
:102D20002B4497B213FA82F3013B4288B3FBF7F3CB
:102D300013FB07439BB29A42044A93BF22EA06035D
:102D4000324013439BB20B80F0BD00BF0080FFFFF9
:102D500010B5114B00EB41041A786389B3FBF2F311
:102D600003FB0223013A1A44B2F5706F027928BFBF
:102D700000231A448378B2FBF3F0194403FB1020BC
:102D8000091AB1FBF3F003FB101313446FEA43433A
:102D90006FEA5343638110BD5C0D002010B5104BEA
:102DA000C8B15A78022A04D040F22B111720FFF73D
:102DB0003FFD03225A70026812F0070102D04FF45F
:102DC0009871F3E75C685A6022440260C3E903111A
:102DD0009A60596110BD0122C3E901005A70F9E7F8
:102DE0005C0D00202DE9F041254E96F801E00EF033
:102DF000FD0CBCF1010F04D040F245111720FFF784
:102E000017FD91F80680B8F1080F02D940F247117A
:102E1000F4E7CF7997B34546022D726838BF022593
:102E20007B1D5C0002EB43036A1E13446D422B4082
:102E30008D884544013DC8F100022A404FF6FE75D9
:102E4000AA4202D94FF4A971D8E7BEF1030F12D1FB
:102E500006EB80001C1BC56815B140F25711CDE789
:102E6000C460A770228084F803C0087A09682071C2
:102E7000080CE080218107FB02337360BDE8F0811C
:102E80005C0D00202DE9F047364C6378012B65D0AE
:102E9000032B04D040F267111720FFF7C9FCD4E9D7
:102EA00001329A4202D04FF4B571F5E7254600236E
:102EB00005F80C3B1E460222994655F82200013ABD
:102EC00058B190F804808178B8F1FF0F2FD180F8C5
:102ED00004908E423CBFCEB20123511CEDD103B110
:102EE0002670022640F6FF6955F826709FBB013E0A
:102EF000FAD2042363700020BDE8F08755F82CE077
:102F0000BEF1000F06D09EF804A0C24504BF9EF893
:102F100002E077440CF1FF3CBCF1000FEEDA3944DB
:102F2000FF2907D903B126704FF48371B4E79446A3
:102F30000027F1E70771CCE707EB41033846A3F818
:102F40000A90FFF705FF08F10108BB785FFA88F1E6
:102F50008B42F1D8CBE74FF00008F6E70223606818
:102F60006370C9E75C0D0020F8B54FF6FF7303806E
:102F7000184B03EB81030546D868B8B1867803790E
:102F8000B3FBF6F206FB1233DBB219460A1D00EB67
:102F90004202B2F902705488002F09DB0131B1FB03
:102FA000F6F206FB1211C9B28B42EFD10020F8BD38
:102FB000FF29FBD0C4F30E03C4782B8024B94FF44F
:102FC000D9711720FFF734FC5380BDE8F8400BF0AF
:102FD0002BBE00BF5C0D00201D4B03EB810370B5C1
:102FE000DC68054644B3030404D54FF4E0711720B0
:102FF000FFF71EFC014620460BF0F8FDFF280146B6
:1030000004D02046BDE870400BF00EBEA078B5FBA2
:10301000F0F300FB1353DBB219460A1D04EB420622
:10302000B6F90260002E09DB0131B1FBF0F200FBC2
:103030001211C9B28B42F0D1002070BDFF29FBD024
:103040008B4204EB42021CBF0023E3705580D8E79B
:103050005C0D0020094B03EB810310B5DC680146D1
:1030600020460BF0C3FDFF28014604D02046BDE8F2
:1030700010400BF0D9BD002010BD00BF5C0D00203A
:10308000F8B5104B03EB81030746DC680146204688
:103090000BF0ACFDFF28054611D0E688238953EAE2
:1030A000064606D0014620460BF0BEFD01463846D6
:1030B000B04720462946FFF74BFE0020F8BD03200D
:1030C000FCE700BF5C0D002038B50E4B827903EBA6
:1030D00082030446D86808B9022038BD8278E179B5
:1030E0009142F9D24B1CE37100EB41035D89B3F9C6
:1030F0000A30002BF3DBA5800BF096FD206000204A
:10310000EBE700BF5C0D002070B5044610F0030033
:103110000E4603D049211820FFF78AFB0BF00AFD69
:10312000054624B10348314604600BF003FD2846F0
:1031300070BD00BF740D00202DE9F04F1E4C85B00E
:1031400092462268BDF83CB098468146BDF83830BA
:103150000D461AB95B211820FFF76AFB1A460A21AF
:10316000504603930BF091FB5A4606460921404610
:103170000BF08BFB3118074620680BF006FD039B14
:10318000C9F8000018B9286005B0BDE8F08F8419AF
:103190002C60D9F800000093524631460A230BF008
:1031A00026FB2868CDF838B009234246394605B0D9
:1031B000BDE8F04F0BF01BBB740D002070B50E4640
:1031C00004460BF06BFB054630460BF067FB044BE7
:1031D0002A1821461868BDE870400BF000BD00BFFA
:1031E000740D0020014B18680BF0C2BC740D002058
:1031F000F8B511441D4EC9B210F00305317003D06B
:103200004D210920FFF714FB1F2B19D89B009BB2FF
:10321000033323F003039BB208B17060338101EBE9
:1032200081047668E2004FF0010C00EBC404EFB2B9
:10323000B94212D8D01D03FB010020F00700F8BDF1
:10324000FF2B4FEA430204D9FF339342DFDB93B2F3
:10325000DEE77C2AFBDC7C23DAE710B186F800C0CD
:103260007460013528361C44E1E700BF780D00206A
:1032700038B5144A147853680021C8B2844203D880
:10328000A8210920FFF7D4FA184601310578283320
:10329000002DF2D00021817001241289447044680D
:1032A0008161C161920800F12001051D21F8022B06
:1032B000994245F8044B1444F8D10023436103704C
:1032C00038BD00BF780D00202DE9F8434B788046CB
:1032D0000C4602F0040602F0FB07D3B1DFB12E4B1F
:1032E000D4F804901D89B7BB01236370AD08A761B2
:1032F000E76104F120034A46211D04F1280023F868
:10330000025B984241F8042B2A44F8D10023636100
:1033100001E0002FE3D0FF23A370002E18BF022688
:10332000A3191B7D032B03D1022F1CBF0136F6B25C
:10333000A31901221A7506F10C0204EB860600237C
:1033400024F812307268A370C8F80020A8F804307E
:103350004046BDE8F883002114226170A0180AF0ED
:1033600071FDB5F5FF7F0FD26B08ED1AADB209EB19
:103370000502C4F804902584A2606384C4F80C900C
:10338000A5842261E384C6E7B5F5EE6F4FF0FF0335
:10339000EBD940F27265EAE7780D0020134B012269
:1033A00000214FF0FF309A60C3F80012C3F8080301
:1033B000C3F80015C3F804259A60C3F80803C3F8DE
:1033C0000015C3F804250A490A4A03F580334FF46F
:1033D0000040C3F80825C1F88000BFF34F8FBFF34A
:1033E0006F8FC1F88001C3F80825704700F00040D6
:1033F00000E100E00000F63F0A46192302F8033B13
:103400000448C368C1F8033003695360436993609B
:10341000704700BF880D0020024B5A8C02435A842B
:103420005B6A1847880D0020014B00215B6A184732
:10343000880D002010B5154C06F052F805F072FC0E
:10344000208DFFF7F1FF237E6BB12246104952F821
:103450000C3BE36063685360A368936004F1190058
:1034600002220DF028FA236B93F87030022B02D160
:10347000084803F04BFBA36B94F8341094F8350024
:103480009847002384F83C3010BD00BF880D002011
:10349000F9330000B40D0020034B93F83C300BB11E
:1034A000FFF7C8BF704700BF880D002070B51D4CE6
:1034B000256B636C236495F89C30064694F84800AD
:1034C0000BB10430C0B295F869102EB9FF2803D1B2
:1034D00095F868308B4201D005F0C4FE95F89C3019
:1034E000D3B1E06C06F07EF9012384F86830D5E9A9
:1034F0004023E16C206CC4E9182305F0C9FB16B920
:10350000304606F0ADF995F86810002006F0F2F9A3
:10351000022384F83C3070BD206C06F063F905F09E
:1035200001FCECE7880D00202DE9F743404C94F8AE
:103530003C30266B012B05460F465FFA83F804D01A
:1035400040F275412720FFF773F996F88C303BB1B4
:10355000002186F88C100420FFF75EFF86F88E802D
:10356000A16F0B7803F00303032B05D196F892307B
:1035700013B90220FFF750FFA26F137803F0030383
:10358000032B03D05378002B3ED1012386F89230D1
:1035900096F89C30B3B1D6E94001236B94F848907B
:1035A000C4E918014FF0010893F8690084F86880B5
:1035B0000BF04CFC0022034600921E494A4640464E
:1035C00005F020FBDDB9D7B1E36F28469847B0B1CD
:1035D00094F834309BB994F88030D906C3F30012C4
:1035E0005CBF636C1D78D4F884305CBFC5F30015F4
:1035F000C5F1010553B9B4F888303BB132B903B015
:10360000BDE8F043FFF716BF0223BFE7638C9A07BC
:1036100009D5A36FDB78022BF1D1002003B0BDE800
:10362000F043FFF743BF002DE9D1002BF5D0E6E7CB
:10363000880D0020D80D002008B5094B93F83C20D8
:10364000022A04D04FF40F712720FFF7F1F8DA7A3D
:1036500042F00102DA72BDE80840FFF7EBBE00BF9E
:10366000880D0020044B93F83C2002F0FF000AB9BB
:10367000187670470C207047880D00200A4B0B4AC3
:1036800070B506460D461A60FFF7ECFF18B1DE2153
:103690002720FFF7CDF8064C012104F18A000CF039
:1036A000FBFF6664E56470BD4C000020643E0000D2
:1036B000880D0020024B012283F8AC20704700BF28
:1036C000880D00202DE9F043804C85B002AE86E8DD
:1036D000030094F83C100C9F01F0FF0511B90AB1EA
:1036E00003B127B940F24F112720FFF7A1F896E860
:1036F000030004F12C0C8CE8030084F8AC5084F82F
:10370000345084F8AD5084F8355084F8AE50658458
:103710002585256BE3676262A76305F0E1FD05F08F
:1037200001FB95F96C0005F06DFE686A06F04CF837
:10373000E86905F06DFE95F8AC0005F08FFE236B8F
:1037400093F8FF310BB105F0B9FD95F86910012030
:1037500005F056FF002800F0B6805D4B5D4E1868FE
:1037600006F038F82B69C4F8B0306B69C4F8B4308F
:1037700005F58C7705F5847318685968324603C2DD
:103780000833BB421646F7D1D5F81821C4F8692092
:103790005A68514B5A60236B93F89620A2F1250189
:1037A000012993F868100E4603D993F8970025284D
:1037B00055D193F8AE322BB1012E03D0012B14BF9B
:1037C0000226012605F13007314638460DF003F98F
:1037D00031460CF0BAFDAB8F95F86910834228BFD3
:1037E0000346384684F8B8300DF0DEF895F86910D5
:1037F00095F89C60B5F84480082908BF04210CF0B6
:10380000A4FD0EB9043080B2404528BF404695F86B
:103810009C305FFA80F884F848809BB1D5E9406716
:1038200095F869004FF00109C4E9186784F86890B9
:103830000BF00CFB00220346009226494246484604
:1038400005F0E0F90120FFF731FE244BD3F85035A5
:1038500023F00803032B2AD140F2F91144E7203A60
:10386000012A0CD8232893F83E210AD012F0010334
:1038700019D19207A6D5012918BF0226A2E723284D
:103880000DD193F83E2193F86130134013F00102FB
:103890000BD19B0796D5012908BF0E46ECE70429FA
:1038A00008BF08268EE71E468CE716468AE70023E7
:1038B00023606360A360B5F8903063802B88238019
:1038C00095F8AC30237105B0BDE8F083880D002079
:1038D0004C000020D80D0020F10D00200010004009
:1038E00008B50C4B93F83C201AB9BDE80840FFF727
:1038F000A1BD93F83C20022A04D040F212212720D7
:10390000FEF796FF1B6BD3F81802BDE8084005F0E0
:103910007BBF00BF880D0020014B1876704700BFA9
:10392000880D0020014B93F8AE007047880D0020F1
:10393000024B188DC0F38020704700BF880D002017
:10394000014B93F8AD007047880D00202DE9F3413D
:103950001E4D82072C6B06460F4622D5D5F88430C3
:1039600023B940F266412720FEF762FFB5F88820B0
:10397000296C1846033291F801800AF0EBF90DF139
:10398000020201A92864D5F8B4000BF0C9F8019827
:103990000BF0B0F8012238604146D5F8B4000BF0C6
:1039A00055F8F3070ED5D4E94032013342F1000255
:1039B000C4E9403294F89430012B0CBF002301235A
:1039C00084F8943002B0BDE8F08100BF880D00207B
:1039D0002DE9F04FA04C002387B0CDE9043394F8D3
:1039E0003C30276B022B80468A4604D04FF49D6101
:1039F0002720FEF71DFF238D590606D44020FFF730
:103A000013FD238D43F04003238597F89C30B8F1D4
:103A1000000F00F01281A3B105F0B2F905F096F99C
:103A200078B9236C5A7862B11B7897F89420C3F365
:103A3000C0039A4205D1012384F83530FFF7FAFC20
:103A40004FE1236C5978A4F8881011B3D4F8B4006E
:103A50000AF0D2FFC4F88400238D97F8932043F432
:103A600080732385236C1B78C3F380039A4200F094
:103A7000B980256B95F89230002B3ED0022B12D1E5
:103A8000D4F8B00004A90AF04EFF28B94FF47971B8
:103A9000AEE7C4F88410DFE7D5E93E32013342F1E6
:103AA0000002C5E93E3295F88E30002185F892106B
:103AB00023B185F88E101020FFF7AEFC95F88D30FD
:103AC0009BB1002685F88D6001F0B8FD10B940F279
:103AD000FB318DE731460820FFF79EFCD5E93E32E9
:103AE000013342F10002C5E93E3295F89330012BD3
:103AF0000CBF0023012385F89330238D43F48063AA
:103B000023854FF0000B216C97F894200D78C5F3B6
:103B1000C0039A4240F0868005F00305032D266B12
:103B200062D0002D6BD196F89430013B18BF012371
:103B300086F89430236C5B7833B1D6E94032013398
:103B400042F10002C6E9403297F89B3093B1D7E9C1
:103B50003E23216B002691F8680084F86860C4E970
:103B600018230BF073F93D4900960346FB223046BB
:103B700005F048F8BAF1000F72D1628C94F8AD30BC
:103B8000120703D5A26FD278022A69D0012B67D819
:103B9000E36F01209847002862D094F83490B9F17F
:103BA000000F5DD1266B94F8483096F89C208DF874
:103BB0000D90002A40F09880FF2B96F8681003D1F2
:103BC00096F869308B4202D0FF2005F04BFB96F847
:103BD0009230032B00F22F81DFE813F089000E01F1
:103BE00011012401C3468EE7238D012043F40063B5
:103BF00086F88C002385FFF70FFC002593E74B78B0
:103C0000002BFAD0228DD4F8845042F40062228531
:103C1000002D99D0FB2B07D894F8AC305BB1202055
:103C2000FFF702FC00258FE794F8343043F01003CF
:103C300084F83430F6E7454675E70BB105F0D6F861
:103C400094F8AD30013384F8AD30238D002543F472
:103C500000732385AB4677E7880D0020D80D002040
:103C600005F068FE4FF0010A1DB105A90220FFF71B
:103C70006DFEBBF1000F0DD0B4F80720B4F805308D
:103C80001343B7F8902013431EBFB4F80930013333
:103C9000A4F80930B8F1000F00F0D580B4F8053071
:103CA0000133A4F80530002384F8AD30694802F0F0
:103CB0000BFF049840B10AF01DFF216B00234372F3
:103CC000072201300CF0E5FD059B33B1216B00228A
:103CD0001A720C2205980CF0DCFDBAF1000F7FF48B
:103CE000ADAE07B0BDE8F08F0433DBB264E794F803
:103CF000B830ADF80E305848A6F8583001F08EFCB8
:103D000000285DD0A16F8020FFF786FB012386F895
:103D10008D3096F89330A26FDB0003F00801137822
:103D200003F0F3030B4396F89410890001F00401AB
:103D30000B4323F0100103F00303032B117002D196
:103D4000D378022B0FD0D4F8B0000AF034FE40B97B
:103D5000A36F1B7803F00303032B04D001F084FC52
:103D600008B94FF01009A06F037849EA030980F8F9
:103D7000009096F89B30002B60D04378002B5DD0EC
:103D8000E06C05F02FFD002384F86830D6E93E236F
:103D9000A16FE06CC4E9182304F07AFF96F869106B
:103DA000012005F0A7FDA26F1188A4F8801091787A
:103DB0002A4A012384F8AE30917084F83C3053E7EE
:103DC000D4F8B0000DF10D020DF10E010AF088FDDE
:103DD000A06788B196F8D73073B99DF80D302BB92C
:103DE00003808370A06F01210CF056FCBDF80E100B
:103DF000A06F0CF01DFD8CE7194BA36789E7B6F89F
:103E00005830D4F8B000ADF80E300DF10D020DF1C0
:103E10000E010AF065FDA06700287FF47AAF40F23A
:103E2000D521E5E50C4801F0F9FB00287FF471AFDE
:103E300040F2DE21DCE540F2EB21D9E505F0D2FCD1
:103E400004F070FFAAE7B4F807300133A4F8073094
:103E50002CE700BFB40D0020000E0020080E00204B
:103E6000120E002039360000D1390000293500003B
:103E7000993400000B2808B504D94FF4527106207C
:103E8000FEF7D6FC014B33F8100008BD3C060300DA
:103E90002DE9F04F8BB0044615460293894690F801
:103EA00069B00CF042F8064694F80002FFF7E2FF12
:103EB00094F897300393064485F00103B6B2059356
:103EC00055BB94F84C32032B26D1039B0D2B23D1E9
:103ED000B4F8AC324B451FD1D4F85432C4F8403258
:103EE000A369B4F81E22C4F84432B4F892321344E1
:103EF000C4F84832204604F0A5FDD4F8B032A362DD
:103F0000B4F8AE32A385D4F8B432A361D4F8B83291
:103F10002362022384F84C32B4F89072B4F8908093
:103F2000A9EB07073FB204F51A73A9EB0808002FA5
:103F300004930FFA88F86EDAD4E9A0234746C4E95F
:103F4000A22301230493CC4B1B7803F0FF05002B25
:103F500054D006F07BFA054600284FD0B4F834322E
:103F6000012B6DD994F84C32022B69D094F862522F
:103F7000002D65D194F80002FFF77CFF94F84C32D5
:103F800000F5C866012BB6B2D9B24CD194F89A307C
:103F9000D4F828A0032B40D1D4F8445255443146DC
:103FA000D4F8440206F0A8F9D4F84032C4F840022C
:103FB000A0EB030AD4F848323146284603FB0AFA3C
:103FC00006F09AF9D4F85052C4F85002451B314615
:103FD000A06906F091F9AA44B4F81E52D4F8483208
:103FE0004544ED1BDB432B44D4F85452451B05FBE1
:103FF00003A50123C4F8540284F8623294F84C32C9
:10400000DFF874A2032B00F28281DFE813F01B00BB
:1040100016016B003701029B94E728460CF0BFF9AC
:1040200000EB0A05BBE7A069314606F065F9B4F874
:104030001E52D4F854324544ED1BC31A5D43D8E7F1
:104040000025DBE7012100200CF0A9F98046A06AD9
:104050003146404406F050F93146C4F85002A06998
:1040600006F04AF907A9C4F8540208A805F06AFC4A
:10407000079B0093D4E9A201DDE9082309F044FA83
:10408000834620460AF028FFD4F89832A66A94F8AE
:1040900069001E4405F09CFDD4F85012A6F12007DB
:1040A0007F1A00F523404FF47A734744A130B0FBE8
:1040B000F3F0A38DA7EB0B0730313F1A03EB41015F
:1040C00094F869000AF0F5FED4F89832FB1A223011
:1040D000B3F5CA7FCAF8040055D840F2F241302047
:1040E000FEF7A6FBA36AD4F844023146184406F052
:1040F00003F93146C4F85002A06906F0FDF8C4F88F
:10410000540220460AF0E8FEB4F81E32A66AD4F83B
:104110004472002B40F08C80029B002B00F08880C2
:1041200094F869B0584605F053FD3744D4F89C2202
:10413000D4F8503204938046203F5846174405F087
:104140003FFD049BFF1A3F1A08F5234808F1A10818
:104150004FF47A70B8FBF0F8A7EB0807D4F85012C8
:10416000D4F84032D4F8482294F86900303102FB88
:104170000311A38D03EB41010AF09BFE0123CAF852
:10418000040084F84C32A669D4F85432A6F21F26F3
:10419000F61ADAF804309E4228BF1E467423A4F8AB
:1041A0007032D4E9A2327F1BDF1942F100024FF0D6
:1041B0000008C4E99E72C4F8186284F8688204F1A9
:1041C00030000CF0EFFBB4F80812A4F89092D4E998
:1041D0009E23A1EB09090FFA89F9C145C4E9A2237D
:1041E000C8BF022384F87282C8BF84F87232039B6E
:1041F00006440D2BC4F86C62029B00F08B80002BF0
:1042000040F0898094F84C32002B00F0A280A16924
:10421000D4F8543204F51A70C91A0CF065F880B25B
:10422000002800F09680149B03B118800120A0E0C4
:10423000D4F8500237443F1A90E7D4F85422A369C7
:10424000D4F84802D4F840129B1A5F43B4F81E32E7
:104250009844C3439844D4F85032303301FB0033C0
:10426000A18D94F8690002FB083301EB43010AF0C9
:1042700020FECAF8040086E7440E0020A369D4F8A3
:1042800054021B1A5F4394F89630252B03D094F800
:104290009730252B0AD1B4F8AC32A9EB03031B04E9
:1042A00004D494F8AF32002B18BF9B46049B03B391
:1042B000B4F81E32EBB9D4F89C3213B940F2445131
:1042C0000DE794F8690005F083FCD4F89C320646AB
:1042D000203B94F86900049305F072FC049B1F4492
:1042E000381A06F52343A1334FF47A77B3FBF7F777
:1042F000C71BB4F81E12D4F854324144594330312C
:10430000490058460AF0D5FD1B4B58603BE740F288
:104310005951E4E6EBB1B4F8341221B3B4F83622C3
:1043200094F83832A4F8362202FB0333994202F1A2
:1043300001000EDD94F872325BB1002384F8723212
:10434000A4F8360202F02EF800F00700013084F8DD
:10435000380294F8940204F51A7108F021F820B993
:1043600040F2A351BBE60A46DAE7059B84F86032C7
:1043700000200BB0BDE8F08F440E00202DE9FF4176
:10438000044618B99C213020FEF752FA082900F2A1
:104390002381DFE811F0090071007B007B007600CB
:1043A00021010D0115011F010023C0F89C3290F876
:1043B0006032B0F89020002B56D0B0F85E329342B5
:1043C0004CD1B0F80C22A0F89020D31AA0F80E32ED
:1043D000D4E99E232046C4E9A02304F017FA94F8F8
:1043E0001332002B00F0A780A569D4F85432DFF80F
:1043F000EC819D4288BFED1A98F8083098BF0025DF
:104400001BB9236B9D4228BF1D4604F13000D4F830
:1044100018720CF0C7FA0744022008F0A1FDED1B4A
:1044200025EAE575854228BF05460221284608F0A1
:10443000E7FD00B92F4440F27D22394620460CF0BA
:10444000FCFAD4F81832C8F80C00A069184408F037
:104450002DFD00286FD140F2AA3194E79A1AA0F8F6
:104460000E22A4F89030B3E7B0F85C329A1AA0F8A4
:104470000E22B0F85C32F4E704B0BDE8F0410DF074
:10448000E5B804B0BDE8F04105F068BA0DF0CDFB29
:10449000D4E9A023801A61EB0301012871F1000324
:1044A00002DA4FF4C4616EE76FF0010383424FF00C
:1044B00000038B4102DA40F2216164E7A3690BB18A
:1044C000B0FBF3F394F89710B4F85E220D2935D1C0
:1044D0000132A4F85E22B4F89232B4F8905001335D
:1044E000A4F89232B4F8CA301D44B4F8C830013D83
:1044F000ED1AADB20DF10E06B4F85E126B1A1B0484
:1045000036D594F89A303649002B0CBF3E23082349
:1045100084F8B93004F1B0000CF0C7F920460DF072
:1045200097F8002384F84C3294F8940207F0EEFDDB
:10453000202384F8943204B0BDE8F081B4F89010E0
:104540000B449BB2D11A090454BF531C01339BB2D4
:10455000A4F85E3294F86132002BBCD1B4F80C326E
:10456000B4F85E22934204BF0133A4F85E32B2E78E
:10457000002300961A462046FFF78AFC0028DAD06E
:10458000012812D1B4F85E22B4F80812BDF80E303A
:104590001344521A12049BB204D5EA1A12F4004FC3
:1045A00018BF0B46A4F85E32A6E74FF4CC61EAE6EA
:1045B000012005F06BFE04B0BDE8F0410AF054BCE8
:1045C00090F84C32042B01D0C021DCE6002380F8A7
:1045D0004C32B0E7C621D6E6CA21D4E6440E00200C
:1045E0006F0B010090F8E8302DE9F04104460D46CC
:1045F000164603F0FF0813B10C20BDE8F081014618
:10460000474807F057FD20280746F5D0502241467D
:1046100004F1C80009F016FC012384F8C870C4F83E
:10462000CC5084F8E83035B101F0D4FE00F007003A
:10463000013085F8380220460AF018FC00270223D2
:10464000A4F8FA30A4F8F80084F8F07005F084FEBD
:10465000B4F8F8509D35054420460CF079FEADB213
:10466000014668B30BF061FC00F5CD6189B23046BC
:1046700005F042FE3044C4F8F4000DF0D6FA2818D4
:1046800041F10001C4E94001012084F8D000E78431
:104690000CF02BFFDB3E361AC4F8D4604FF0FF322B
:1046A0006FF00043C4E9422394F8C80004F1F0011C
:1046B00007F076FE30BB40F2EF113020FEF7B8F87D
:1046C00020460CF069FD174FDB30C4F8F400388A3F
:1046D00040B1E08C30B101F07DFE3B8AB0FBF3F2DB
:1046E00002FB130005440DF0A0FA2D1841F1000162
:1046F000C4E94051002ED1D0751941F10001C4E93F
:104700004251D1E7D4E9402300252046C4E93823AB
:10471000A4F8EA5029460CF047FE28466DE700BF92
:104720009DEF0000440E0020F0B5002385B0CDE9D8
:10473000003301238DF806306846FEF7C5FC70B1E2
:104740001B4E0123B3740027CDE9027702A8FEF7C0
:10475000BBFC0546A8B10020B07405B0F0BD0098C0
:104760000AF0D1FCE8E790F8940208F073FD94F8A1
:10477000940284F84C5207F0C9FC202384F8943248
:10478000E2E7029B002BE1D093F89422202ADDD0AF
:1047900018884FF6FF739842DDD02946FEF75AFC81
:1047A00004460028DFD140F229113020FEF740F8FE
:1047B000440E0020054B002201211A7219709A74D0
:1047C00042F210721A82FFF7AFBF00BF440E002002
:1047D000014B1872704700BF440E002008B504F06A
:1047E00003FD044BDA6882422ABF987C002080F0E7
:1047F000010008BD440E00202DE9F34704460529B9
:1048000000F28D80DFE801F0037D6A7A8186D0F8BE
:104810009C32002B50D090F86232002B4CD090F894
:104820004C32032B48D190F869A00BF07EFB064672
:1048300094F80002FFF71EFB804606445046D4F869
:104840009C7205F0BDF93F1A504605F0C1F900F21F
:10485000E7325046D4F818524FF47A79B2FBF9F2A5
:10486000BF1A05F0ADF92D1A504605F0B1F900F563
:104870002340A130B0FBF9F02B1A5A08B6B2603BC6
:1048800008F5C868293273431FFA88F8B3FBF8F3B8
:1048900060335908A2EB53039F4202D30A44974264
:1048A00001D905F0BFFFA069314605F025FD0023C1
:1048B000C4F8540284F862321A4B9B7C03F0FF0266
:1048C00063B9B4F80C12009201232046FFF7E0FA16
:1048D00038B140F2DA613020FDF7AAFF042384F8F2
:1048E0004C3204F047FE07F03FFAB4F89020A4F8E9
:1048F0005E220023A4F8923284F8613202B0BDE84F
:10490000F087032380F84C32F8E704F067FCC4F822
:104910009C02F3E702B0BDE8F0470AF0DDBA40F2CE
:104920006E71D8E7440E00202DE9F84306460C4688
:1049300015468ABB04F058FC0121D4E9408907469A
:1049400084F8E850D4F8CC0084F8D05084F8E9100A
:1049500001F0F6F9D4F8CC00C0E9A08994F8C83089
:1049600080F89432C0E9A289C0F898720AF0C8FAB7
:1049700020B140F21D713020FDF75AFF04F0FAFD1E
:1049800007F0F2F9074994F8C800324605F052FCE6
:1049900028B940F28171EEE74FF4F361EBE7BDE82F
:1049A000F88300BF7D430000014B1882704700BFB1
:1049B000440E0020F0B5070CA7F5AA42144B543A58
:1049C000012A03EA90231FD927F4004042F6AA22C5
:1049D000801A18BF01200022162116461F2487EADC
:1049E000060562EA0505013510D0DD03ADB245EAE2
:1049F0005606E503ADB2013945EA52024FEA5303C8
:104A00004FEA5404EBD1F0BD0020E4E70020FAE7C0
:104A1000E0FF3F0010B501210020FEF71BFB04461C
:104A200070B90121FEF7D8FA044620B940F21B31D3
:104A30003920FDF7FDFE034B93F900100CF074FBD9
:104A4000204610BD580E0020304BF0B55A88B0F803
:104A50005C70B0F85A609D88974228BF174696420E
:104A600028BF16461B2E85B00C462ED0B5F5A47F68
:104A70002DD040F648039D4201A928BF1D460AF0EB
:104A8000BDFCBDF80A309F4228BF1F46BDF80C3060
:104A9000E780AB4228BF2B462381BDF806309E42FB
:104AA00028BF1E46BDF8083066809D4228BF1D46BF
:104AB000A580FF232370E3881B3B9BB2E02B08D922
:104AC0004FF4B7613920FDF7B3FE1B2FCED105B0EF
:104AD000F0BD63881B3B9BB2E02B02D940F2BA5178
:104AE000F0E72389A3F5A4739BB2B3F5E06F02D975
:104AF00040F2BC51E6E7A388A3F5A4739BB2B3F5DB
:104B0000E06FE4D940F2BE51DCE700BF580E002050
:104B100008B50BF033FB00F053FF00F0E9FB0BF09E
:104B2000B6FE01F0B1F902F04DF801F0C5F9084BFD
:104B30001B224FF4A4715A809980064B06499A8033
:104B400000221960DA825A821A835A7408BD00BFA3
:104B5000580E00208412002003021B00044B41F673
:104B60004C52C3E902221B221A74FFF7D1BF00BFC7
:104B7000841200202DE9FF41364DAB68044640F811
:104B8000303F0AF0F6FA064600F0A2FB6687324E86
:104B90002B7C84F8383010F0200F33681DBFAA88B2
:104BA0006988A4F85A101B2208BFA4F85A20A4F858
:104BB0005C205BB1012302A88DF8083003940CF04F
:104BC0005BFD336894F96C1020889847AE7CEF7CCD
:104BD000B5F8148041F64C53A36116B900F07EFB82
:104BE000064657BB00F07AFB074646B338B302A926
:104BF00020468DF808608DF80970ADF80A800BF03A
:104C0000CAFB6B7801932B7800936A88AB8804F118
:104C1000140104F11000FEF78FFA236913B940F272
:104C20008F5114E0636913B94FF4B2610FE00020B3
:104C300004B0BDE8F0810920FAE7002ED7D1208822
:104C40000021FEF71DFA0028F5D040F27E513920F0
:104C5000FDF7EEFD8412002050000020F7B5054658
:104C60000E460CF094FA002873D028460CF070FB26
:104C700040B1B6F80130013B7F2B03D91224204606
:104C800003B0F0BD28460CF067FB08B90C24F6E72A
:104C900028460AF02EFB0028F8D128460CF035FAF9
:104CA00004460028F2D1284602F046FC0028E5D050
:104CB000B6F80170F17842F2107328465F430CF0A9
:104CC00034FB28460CF03CFB014658B93A462846CE
:104CD000FFF788FC04460028D1D041F616013920A0
:104CE000FDF7A6FD21460DF10600FEF73DF906464B
:104CF00068B3214601F024F8BDF806303380284619
:104D000031460CF03FFB28460CF02CFB98B92846A6
:104D10000CF02AFB01463046FFF72CFF0446002822
:104D2000ADD13A4631462846FFF75CFC044620B137
:104D300041F63901D3E70121EDE7074B9B68002BD2
:104D40009DD0024606F599713046984797E70D24A5
:104D500095E7422493E700BF580E0020034B5A8882
:104D600002801B7883700020704700BF84120020EF
:104D700037B583781A2B054609D8042B05D90122AB
:104D800002FA03F3134A134205D112241AE0292B25
:104D900001D03B2BF9D12888B0F5706FF5D2694668
:104DA0000BF049FA88B9019B93F8302102F0FF0417
:104DB0006AB9AA7883F83121FF2283F83021684646
:104DC0000BF040FD204603B030BD0224FAE70C246E
:104DD000F8E700BF200038040188A1F11B039BB253
:104DE000E02B0CD84288A2F5A4739BB244F2481081
:104DF000834204D8034B002059809A8070471220C8
:104E0000704700BF580E0020034B5A889B880280D1
:104E100043800020704700BF580E002038B504784A
:104E20004278857804F0010352EA030104F0020499
:104E300001D1112038BDBCB9002DFAD0002B08BF1C
:104E4000144601E00024254620460AF090FA002886
:104E5000EFD028460AF08BFA0028EAD0054B002054
:104E60009C74DD749882E5E7002BEBD114461D4657
:104E7000EAE700BF8412002013B5008869460BF0F2
:104E8000DAF918B10224204602B010BD019A92F856
:104E90004C32DBB292F8B820002AF3D113F0FB0FAA
:104EA000F0D0019890F842310BB13A24EBE790F83A
:104EB000E23003F0FF04002BF7D190F8D9309B07C4
:104EC00006D1012380F8423168460BF0BBFCDAE7DB
:104ED00002490222DA300BF0EEFCD4E7CB0F0100DE
:104EE000F0B50778EF2F85B004460D4603D912259B
:104EF000284605B0F0BDB0F80130ADF80C309DF893
:104F00000C30DA063FD49E0603F0030238D5002A9F
:104F1000EDD11807EBD46378190711D42179E27821
:104F2000E07942EA0122617942EA0142A17941EA4B
:104F30000021207A41EA00418A42D8D81F2AD6D9D6
:104F4000627A013A062AD2D8A27A032ACFD813F07D
:104F5000040102D1023A012A03D8E27A012AC6D812
:104F600011B9A27C032AC2D813F01001227D19D0F6
:104F7000012ABCD1227E012AB9D8B1B91125B7E7DF
:104F8000032AC6D1B3E713F0600FB0D103F00F02CC
:104F900003F00703052BBED0931E012BBBD9002ABB
:104FA000A5D1B8E7022AE5D1A1E7DA071FD46378D3
:104FB000227D03F0180108291ED1022ADED11B0729
:104FC00009D4E279A37943EA0223227A43EA02432D
:104FD000B3F5804FD2D8BFB201213846FEF73AF878
:104FE000064678B10AF085F9B8B10C2580E700F0E3
:104FF00031F90028DBD1C1E7022AE0D0A27E002AE5
:10500000DDD0BBE701213846FDF7E6FF064650B389
:10501000164B93F900100CF087F830460CF08DF920
:1050200021462870E07430460CF0D2F8637E0546C5
:10503000002B3FF45DAF00287FF45AAF316B02467E
:105040006846FEF741F9306B2A46012109F04EFE11
:10505000316B68460422FEF737F9306B2A46294641
:1050600009F044FE44E7072542E700BF580E002040
:1050700070B50579042D8AB0034658D84488B4F534
:10508000804F54D82B48465D284400214279857AC8
:10509000C07BADF8041042F0100242EA460242EA38
:1050A000850242EAC00202F01F028DF80420BDF81A
:1050B0000420ADF80D201A888DF80F208DF81240CD
:1050C000120A240A8DF811108DF814108DF8102092
:1050D0008DF813405A7B8DF815205A798DF81620DB
:1050E0009A79D3F807008DF81720B3F80B209B7B33
:1050F0008DF81E307F238DF81F3001238DF80C10A2
:1051000006908DF82110ADF81C208DF820308DF818
:10511000223003A88DF823108DF824108DF8251067
:105120008DF8261001A9FFF7DBFE0AB070BD122032
:10513000FBE700BF600603000278034672B14278C5
:1051400062B142881A2A09D982881A2A06D9044AE1
:10515000006810609B889380002070471220704781
:1051600084120020024B02689A600020704700BF42
:10517000841200200378A3F10A02112A9DBF024A7B
:1051800000201374122070478412002008B50520F7
:1051900000F090F803F086FC014B024A9A6008BDCB
:1051A000580E0020494A000008B502F0ADF9FFF79B
:1051B00001FBBDE80840014802F090B9640E0020F0
:1051C00010B50B4C012384F8023102F0A5F90CF064
:1051D0003BFA0AF0D1FF04F203112046FEF74EFA23
:1051E000002009F029FDBDE8104000F09BBF00BF82
:1051F000640E002010B5064C064904F502700AF052
:1052000055FE04F503700449BDE810400AF04EBE97
:10521000640E0020540000205C00002010B5094CF2
:10522000094904F502700AF041FE04F503700749CC
:105230000AF03CFE04F504700549BDE810400AF090
:1052400035BE00BF640E00206C00002074000020FA
:1052500064000020014B93F802017047640E0020A7
:1052600010B5074C00F056FFD4F808020AF016FEFD
:10527000FFF774FC01F0C6F8012384F8143210BD66
:10528000640E0020014B93F814027047640E002056
:1052900010B5074CD4F80C020AF000FED4F8100246
:1052A0000AF0FCFDFFF734FC002384F8143210BD33
:1052B000640E0020C2080549012300F0070003FA2C
:1052C00000F08B5C18438854704700BF100000202A
:1052D000014BD3E90001704710000020034B186810
:1052E000C0F30020400040F0010070471000002093
:1052F00008B505F02BF8084A002332F82310814244
:1053000005D302EB83039B78044A137008BD013375
:105310000C2BF2D10023F7E774060300791000206C
:1053200010B544682388A4F8903194F8683084F864
:105330008F11012B06D0022B04D040F281210620D0
:10534000FDF776FA84F8923194F86930012B01D098
:10535000022BF2D184F893310449022204F5C37080
:105360000BF0A9FA002384F83C3110BD2FFF000098
:10537000406808490388A0F8823190F8603080F8CE
:10538000843190F8613080F8853100F279100BF0AB
:105390008CBA00BF45FF00002DE9F743456895F83A
:1053A000973095F89680232B04460F462CD19735DD
:1053B00038460BF026FA00284CD038460BF01BFA82
:1053C000814638460BF019FA01460AF010FE66686D
:1053D00048B396F86830984225D096F83C21012AC7
:1053E0000CBF96F83E2196F86420114232D0B8F1F5
:1053F000210F18D096F86120114214D153B940F210
:105400006D110620FDF714FAB8F1210F40F0B380BA
:105410009635CDE7042B01D0042831D1984294BFB2
:1054200000200120B0B948460AF0E1FD002849D02B
:1054300096F86930834245D096F83C31012B0CBF79
:1054400096F83F3196F8653019EA030F14BF01232F
:105450000023BBBB636893F83C21012A19D11E21AC
:105460002046FFF75DFFB8F1210F1FD1FA7863687E
:10547000182A83F8212110D040F26D217E20C1E747
:10548000082BCBD00828C9D098422CBF002001207F
:10549000C8E7002283F83C21E5E7092283F896203B
:1054A00093F8D23093BB40F27521E7E70023204602
:1054B0002B700BF00CFB3946204603B0BDE8F043DF
:1054C0000BF029BB304601AA39460AF09DFDD4F8FD
:1054D00004800646F8B998F83C31012B18D10146F2
:1054E0002046FFF71DFF2E70636803F19702954277
:1054F00002D1002283F89720636803F19702954256
:105500004FF0000534D120460BF0E1FA002033E0E3
:1055100088F83C01E8E738460BF071F9A8F8AC02CE
:105520006068B0F8AC32B0F89020013B9B1A9BB297
:1055300047F6FD72934207D9282380F8B930104905
:10554000B0300BF0B2F9D7E790F897300D2B02D0BE
:105550000A3B012B01D82A23EFE79DF8043080F89D
:10556000AE329DF8053080F8AF3225232B70C3E7AB
:1055700083F8D250CAE7022003B0BDE8F08300BF31
:105580006F0B0100044B002283F822204FF6FF72BC
:105590009A84DA841A8570477A100020054B9A8C19
:1055A000824201BF002283F822204FF6FF729A84C4
:1055B000704700BF7A100020014BD884704700BFAD
:1055C0007A100020094A0346908C4FF6FF718842FA
:1055D00006D192F82210012905D01A6001207047E7
:1055E0000020186070470020704700BF7A1000202C
:1055F000064B93F82220012A1FBF0120DA8C83F882
:1056000022009A8408BF0020704700BF7A10002053
:10561000014B1885704700BF7A100020064B0246E8
:10562000198D988C884205D193F8220018B1136027
:1056300001207047002070477A100020094B998C98
:105640001A8D914201D0002070474FF6FF729A8464
:1056500093F82220002AF6D0002283F8222001208D
:10566000704700BF7A100020054B998C1A8D91422B
:1056700003BF93F82200B0FA80F040090120704780
:105680007A10002050B90A4A1346012003F8010B92
:105690000868C2F801008A889A807047012805D1FD
:1056A000034B0A689A608A88D8719A81704700BF54
:1056B000A410002048B90A4B187880B1D3F8012013
:1056C000B3F805300A608B807047012806D1044B7F
:1056D000D87920B19A680A609B89F4E70020704766
:1056E000A410002020B9054B187800F00100704785
:1056F00001280ABF014B0020D879F6E7A41000204A
:10570000F7B500228B888DF80600ADF804300868E4
:105710000C4B8DF80720019D1C78014603F5AC73F6
:10572000D0B2844201D8082009E0D3E90076AE4225
:1057300008BF8F4203F1080302F10102F0D103B068
:10574000F0BD00BFB810002030B5094B01465C78B1
:10575000002203F58173D0B2844201D8082005E00D
:1057600013F8015B8D4202F10102F4D130BD00BF9C
:10577000B8100020F8B52E4C6278013AD2B2231846
:10578000824293F80251627032D0130101019E1CD3
:105790008F1C2644274406F1100C56F804EB47F8FA
:1057A00004EB6645F9D1823382312344214403F16D
:1057B000100653F8047B41F8047BB342F9D1A618D4
:1057C000211896F8023181F802314FF485770623CB
:1057D00013FB027213FB0070A318A258225004EBB3
:1057E000000C9B88ACF8043096F83A3181F83A31D5
:1057F0002846FFF7A9FF082818D12378013BDBB220
:105800009D42237012D02B3304EBC30393E80300B3
:1058100005F12B0204EBC20282E803002078FFF7B7
:1058200093FF08281CBF241884F80251F8BD00BF5C
:10583000B8100020F0B5254D95F8984189B0224662
:1058400005F29911684608F085FA214668460AF083
:10585000B4FC0446B8B300EB4001C9B202A8FDF79E
:1058600077F9601E95F8A161C0B2012495F89821DE
:1058700005E0731CB3FBF2F102FB1133DEB206F15B
:1058800020030DEB030111F8203C002BF1D100EBBC
:10589000400220326A4406EB46032B4412F8187C7F
:1058A00083F8A27112F8177C12F8162C83F8A371F2
:1058B00083F8A42101F8204C0138AB19C0B2FF28AD
:1058C00083F89941D2D109B0F0BD00BFB8100020D3
:1058D00070B5064688B00C46002A4FD02A4A92F886
:1058E000A131D01890F8991121B94FF48071282076
:1058F000FCF79EFF03EB43011144013391F8A251E1
:10590000E57091F8A35191F8A411617100212571FE
:1059100080F8991192F89811B3FBF1F001FB103364
:1059200082F8A13192F8C23123B9184902F5DD702D
:105930000AF0BEFF657905F03F0545F04005657149
:105940000D220021684608F07DFAE3788DF80F30CB
:1059500023798DF80E3004AA0423694630468DF869
:105960000D5007F061FF9DF81F3023709DF81E3029
:1059700063709DF81D30A37008B070BD03216018DE
:10598000FDF7E6F8D6E700BFB81000203558000054
:10599000044B5A78824286BF1B1893F84A010020B4
:1059A000704700BFB8100020044B5A78824286BF6F
:1059B0001B1893F842010020704700BFB810002068
:1059C000064B00224FF461711A8083F8C32183F8DB
:1059D000C421A3F8C61183F8C2217047B810002073
:1059E000014B83F8C4017047B81000202DE9F0473F
:1059F0008246894617469846FFF782FE08280546E4
:105A0000064603D0FFF7A0FE082863D1334C637825
:105A1000072B61D8082D18D12678731C072E237008
:105A200003D96B212820FCF703FF06F12B03DAB220
:105A3000D9F8000044F8320004EBC20104EBC303C0
:105A4000B9F804208A8083F806A065786B1C2901C8
:105A500063704B1C07F11002234412F8010D03F888
:105A6000010FBA42F9D1813108F11003214413F832
:105A7000012D01F8012F9845F9D1102140460AF077
:105A8000E7FB2544102185F8420138460AF0E0FB87
:105A900085F80261667885F84A01002385F83A3175
:105AA00031460F480AF089FB314605460D480AF099
:105AB00084FB012D03D8002818BF0135EDB284F80E
:105AC00098510025284684F8A151FFF7B3FE2846D7
:105AD000BDE8F0871220FBE70720F9E7B8100020A7
:105AE000FA1100200212002010B5064B5878013838
:105AF00040B2002800DA10BDC4B22046FFF73AFEDB
:105B0000601EF5E7B8100020014B83F8C301704711
:105B1000B8100020014B93F8C3017047B810002063
:105B2000431E9BB24AF2B71293429DBF024BA3F8A9
:105B3000C601012000207047B8100020014BB3F8C7
:105B4000C6017047B810002030B50A4B5C7884421B
:105B50000ED9184490F802012B3003EBC004A5794C
:105B60000D7053F830001060A3889380012030BD81
:105B70000020FCE7B81000200246074810B590F856
:105B8000C34124B1417821B1023002F0B1FF204677
:105B900010BD0C46FBE700BFB81000202DE9F74F01
:105BA0002F4C9A46637883428046894656D92318FB
:105BB00093F8425185F00105F9B193F84A31E3B900
:105BC00045F002070135BAF1000F18D1FA070AD5DE
:105BD000062101FB084104EB0810524601F58571CE
:105BE0008230FFF775FEBB0734D504EB0810524630
:105BF00049460230FFF76CFE2CE02F46E3E794F8AD
:105C0000A1614FF0010B002DE0D0A319019393F88F
:105C1000991199B90092DAB100F0C4FB06EB460184
:105C20002144019B81F8A2014FEA102C009A81F8CF
:105C3000A3C1000C81F8A40183F899B194F89831BC
:105C40000136B6FBF3F103FB1166F6B2013DDAE76C
:105C500047F00407384603B0BDE8F08F0027F9E7A6
:105C6000B8100020074B5A78824209D91A1892F8C6
:105C700042212AB9062202FB003000F585707047E8
:105C800000207047B8100020064B5A78824281BF2E
:105C90001B1893F83A01B0FA80F0400998BF002031
:105CA000704700BFB8100020F8B50E460746062121
:105CB000304615460AF0CCFA044640B10A48294657
:105CC000427800F59D7008F0BDF82046F8BD3146D9
:105CD00038460AF08EFA08281FBF034BC01801246B
:105CE00080F83A51F1E700BFB810002030B5002429
:105CF000A0F85040B0F8544042F210754C43B4FB49
:105D0000F2F4A0F85440541E05FB0343B3FBF2F336
:105D1000A0F85230094BB3FBF2F30133A0F858302E
:105D2000B0F84C3005FB0344436CB4FBF2F4594328
:105D30008464B1FBF2F2426430BD00BF005A6202DB
:105D400070B504460D4659BB4FF4367208F07AF828
:105D5000012384F89E30492384F8E930042384F831
:105D6000EA306FF03B0384F8EB306F2384F8EC30BB
:105D70006FF03F0384F8ED302B2384F8E830FE23E6
:105D800084F826317F2384F895301E4BC4F8803088
:105D9000202384F8EE5084F8EF5084F8943270BDDC
:105DA000012922D100238269A0F81E3280F8133223
:105DB000154B1344B3FBF2F3C0F8C03040F6B833D0
:105DC000A0F8C4301146438C7830FFF78FFF0BF0FA
:105DD000F5FF30B1E069FEF7EDFD10B984F8FF5131
:105DE000DDE7002384F8FF31D9E70229D7D1B0F8E5
:105DF000BA32D0F8B4228169BDE870407830FFF73C
:105E000075BF00BF00E0FCFF7FC3C901034B80F8F2
:105E10006C101B680BB10088184770477C0000208D
:105E2000074B93F900301844142804DC10F17F0F5D
:105E300003DB40B27047142070476FF07E0070475C
:105E40008012002007B57F230DF107008DF8073081
:105E500003F044FD9DF9073068B10A4A507840428A
:105E600043FA80F0142808DC10F17F0F07DB40B202
:105E700003B05DF804FB1846FAE71420F8E76FF06A
:105E80007E00F5E780120020024B00221A705A7043
:105E9000704700BF80120020054BFF221A70054A90
:105EA000016811600179117100221A70704700BFFA
:105EB000821200201800002007B5064B18680090D9
:105EC0001B798DF804306846FFF7E6FF03B05DF8F4
:105ED00004FB00BFFC5003000346407848B1DB7868
:105EE0003A2B05D8034AD35C1B1A584258417047D5
:105EF00001207047A40603003A2908B5C17003D8F1
:105F0000064B5B5C437008BDFF2904D04FF48961E8
:105F10002A20FCF78DFC0123F4E700BFA406030050
:105F20002DE9F04385B0894602A9144698460AF047
:105F300082F9054600283CD1039E34B9012486F835
:105F40009D40204605B0BDE8F083376921463846BC
:105F500008F075FC014670B3194B5B88A3422CD343
:105F600001AA384608F0C0FD019B1D809D7096F87F
:105F70009D300198002B0CBF494602210AF08CFB92
:105F8000019822464146033007F0E4FE2146384698
:105F900008F08AFC044618B97B212B20FCF748FC4A
:105FA00002A80AF04FFC039BA3F80A5286F89D5002
:105FB000C7E70124C5E70446C3E72C46C1E700BF95
:105FC00084120020024B987DC04300F0010070470E
:105FD00084120020034B987D80F00200C0F3400043
:105FE000704700BF8412002010B5094C1422002114
:105FF000204607F027FF1222002104F1140007F0C9
:1060000021FF01232373231DC4E9003310BD00BF0A
:10601000A01200207FB505460C4619B9F1211020C9
:10602000FCF706FC03888B8000234B7246693046E0
:1060300008F04CFD014608B9FA21F0E701AA304604
:1060400008F052FDE08008B9FF21E8E7FB2802D9FB
:1060500040F20111E3E701980AF026FB012801D084
:10606000022805D12072206828B94FF48C71D6E738
:1060700040F21111D3E70199E288033107F06AFE7B
:10608000304608F039FD10B940F21D11C7E7002174
:10609000304608F06DFC10B94FF49171BFE70B4B1F
:1060A000DA7D82B11A8B2888013A02A91A830AF094
:1060B000C2F810B140F22B11B1E7039AB2F8AE303A
:1060C0000133A2F8AE3004B070BD00BF84120020CE
:1060D00010B520B940F21B211020FCF7A9FB41604C
:1060E0000272EFF3108472B6094B1A1D02605968F0
:1060F00019B1097A012908BF1A601A68106018607E
:1061000004B962B6BDE8104093F8260007F0B8BCA9
:10611000A0120020024B83F82600FFF765BF00BFE6
:10612000A0120020014B024A1A6070478000002034
:1061300015600000F7B54F4D4F4F06466B681B7A50
:106140000C2B06D1FB7D23B13B8B13B9002003B090
:10615000F0BD2B699BB11B7A8BB12C69002CF5D05B
:10616000237ADBB205222272023B0A2B73D8DFE8C6
:1061700003F01732477272507272727265006C6867
:10618000237A012BE2D0EFF3108372B66A681268AB
:106190006A6003B962B6237A002BDAD02C61DFE79C
:1061A000636823B940F2A1111020FCF741FB20469F
:1061B000314698470420EFF3108372B6227A052AFD
:1061C000D1B201D000294FD1002222722A61002BC6
:1061D00046D162B644E0636813B94FF4D571E3E782
:1061E0003146204698470346C3F30723012BADF8F9
:1061F0000400C0B232D0022BDDD100232B612FE08E
:10620000636813B94FF4DA71CEE72046984700204F
:10621000D1E763680BB9C621C6E70B223270198833
:10622000A6F80310012200241869B2707271B471CB
:10623000214608F09DFB2C61042088E7606810B9B6
:1062400040F2DF11B0E70D4B31461B689847002341
:106250002B6102207BE74FF4F471A5E7032323723F
:1062600000283FF46BAF72E7002B7FF467AF62B694
:1062700064E700BFA01200208412002080000020EC
:106280000448037F23B90449022214300AF001BBF9
:10629000704700BFA0120020850801001B234FF0AB
:1062A0001B128384038482618382C260038539B9AF
:1062B0004FF4A473034AC3844384C261C38202615E
:1062C000704700BF4801480103460846B3F8542010
:1062D000B3F848109142F0B528BF1146B3F84C40CE
:1062E000B3F85620B3F84450DF8FB3F84260D98733
:1062F000A24228BF2246B3F84640A3F84220944267
:1063000038BF14468D4238BF0D468F42A3F8445023
:10631000A3F846402DD1B61A18BF0126B3F84A504B
:10632000B3F85040B3F852E0B3F83CC0B3F8407053
:10633000A54228BF2546B3F84E409D87744528BF27
:106340007446AC45A3F8404002D1A74200D196B1B3
:106350001B88A0F80930A0F80B50A0F80D40A0F859
:106360000F10A0F81120BDE8F040034902220AF006
:10637000A2BA0126D2E7F0BDC90801000B8BA2F832
:106380000B304B8BA2F80D308B8BA2F80F30CB8BE0
:10639000A2F809000249A2F8113010460AF085BAA5
:1063A00009090100094AD2E90003434083EAB01118
:1063B00081EA43214FEAF3435360054B1160584390
:1063C0004FEAF06000EB8000704700BFC812002069
:1063D000BB79379E094AD2E90203434083EAB011F0
:1063E00081EA43214FEAF343D360054B9160584360
:1063F0004FEAF06000EB8000704700BFC812002039
:10640000BB79379E38B50A4C04F1080508212846A7
:10641000FCF79EFBD4E902231343F7D0FFF7DAFF22
:106420002060FFF7D7FF236860600343F6D038BDD4
:10643000C8120020174B184A9A60184A5A60184A26
:106440001A60184A9A62184ADA62184ADA60184AD8
:106450009A61184A1A63184A1A62184ADA64184A82
:106460009A64184A5A62184B184A9A60184A5A6233
:10647000184ADA62184A1A61184A5A61184A9A6127
:10648000184A1A63184A9A64184ADA64184A9A63CE
:10649000704700BF84000020D50B0100D5660000C6
:1064A00041670000710D0100430E0100BD0D0100A8
:1064B000590E0100FD69000095680000450F0100BC
:1064C0006D0F0100ED68000070010020010C01005B
:1064D000050F01007B0E0100F96700009F0E01000F
:1064E00031680000E90F0100A50F0100930F0100C2
:1064F000DF0E0100044B054A5A65054B054A1A6533
:10650000054A5A65704700BF840000206D0C0100E9
:1065100070010020470C0100E70C0100054B064A02
:106520009A65064A1A66064B064A9A65064ADA656D
:10653000704700BF840000209F00010099530000B5
:1065400070010020C9FF000047010100252A70B535
:1065500005460C4618D8012A19D9023A232A16D81A
:10656000DFE802F01A1525242433153515243944A3
:106570004815154D242467676D74151515151515E7
:106580001515151515808990FF2A00F0828040F2BC
:10659000D6315120FCF74CF902784368012A02D128
:1065A00093F8283101E093F83131237170BD4168CF
:1065B000204601F50A710AF0E1F86968204601F504
:1065C0000C71BDE870400AF0DBB84368E8E7BDE84D
:1065D000704000F0F7B90D230B7159234B71002364
:1065E0008B71FB23CB7111230B72DFE7436893F8A8
:1065F0002231DAE7BDE87040084600F0D1B90378EF
:10660000466873B996F828315BB196F82511204693
:106610000AF006F996F824112046BDE870400AF009
:1066200003B996F8231120460AF0FAF896F82211D9
:10663000F2E741682046BDE870400AF080BA43683E
:1066400093F83E21227193F83F3109E0436893F8B3
:106650003C21012AF4D093F864200A7193F8653044
:106660006371A3E7104B1B68002B9FD002462320C9
:10667000BDE8704018470C4B1B68002B96D00246B3
:106680002420F5E7084B1B68002B8FD002462520FD
:10669000EEE74368204693F8A722D3F8A812BDE896
:1066A00070400AF005B800BF5C0200203A289ABF8B
:1066B000024B53F820000020704700BF84000020E8
:1066C0003A289ABF024B53F820000020704700BFC1
:1066D0007001002070B5044640680D4690F8972080
:1066E00001230021783009F0BFFD20B328466668F9
:1066F0000AF027F8A6F8AC026068B0F8AC32B0F83F
:106700009020013B9B1A9BB247F6FD72934208D939
:10671000282380F8B9300949B0300AF0C6F80020C3
:1067200070BD00F2AE2128460AF006F863680A221E
:1067300083F89720F3E70120F2E700BF6F0B010019
:1067400070B5054640680C4690F89720012300215B
:10675000783009F089FD002849D00021204609F051
:10676000BEFF28B921462846BDE870400AF0D3B9DB
:106770006868B4F80D30B0F89020A0F8AC32D2437D
:1067800013449BB247F6FD72934208D9282380F840
:10679000B9301849B0300AF088F8002070BD2046A2
:1067A00009F094FF6E6840F2E2425043C6F8B4022A
:1067B0002379C3EB431103EB810303EB83035B00FA
:1067C000A6F8AE32B4F805305343C6F8B0322046CE
:1067D00009F07FFFA6F8B80220466E6809F07CFF3A
:1067E0006B68A6F8BA020D2283F89720D5E701203E
:1067F000D4E700BF6F0B010008B5406890F89730F0
:10680000152B04D04FF492711F20FCF711F80123CF
:1068100080F8D730162380F89730BDE80840034948
:10682000022200F52F700AF034B800BF490D0100B4
:1068300038B5436893F897201C2A044604D040F2E8
:1068400071111F20FBF7F4FF93F8D8101D88002268
:1068500083F8D72003F5F97071B10C4983F8D8207B
:1068600083F8FB21A3F8FC5102220AF012F86368B6
:10687000002283F8972038BD012283F8FB1183F8AA
:10688000FE210349A3F8FC510222EEE7350D010079
:106890001D0D0100436830B5D3F8884014F00100A5
:1068A0001FD14D68104A8968A3F8D4002A40C3F864
:1068B000E820C2F3076242F0080221F41E5121F0E1
:1068C000100183F8EB2093F8D6200904090C01325B
:1068D00044F00104C3F8EC1083F8D620C3F88840D4
:1068E00030BD0120FCE700BF2F4904F770B54468B4
:1068F000037894F896200D4604F17800072109F0FA
:10690000B3FC80B36968AA68194B22F41E520B408D
:10691000C4F8E83022F01002C3F3076343F0080321
:106920001204120C84F8EB300023C4F8EC2084F835
:10693000D23084F8963094F89C2102F0FF06A2B978
:106940002388A4F89E3184F89D616B68C4F8A03157
:10695000AB680849C4F8A431022204F5CA7009F0F2
:1069600098FF304670BD0126FBE71E46F9E700BFE1
:106970002F4904F7BD0E0100406890F89C315BB9C7
:106980000388A0F89E311A2380F89D310349022222
:1069900000F5CA7009F07DBF704700BFBD0E010051
:1069A00010B50446FEF794FC21F41E51044B21F06F
:1069B000100109040340090C6360A16010BD00BF11
:1069C0002F4904F737B50C464568FEF781FC0A4BA2
:1069D00095F8E82021F41E5121F01001034009042C
:1069E0000093090C13408DF8003001916B4603CBE6
:1069F0006060A16003B030BD2F4904F738B544682A
:106A0000037894F896200D4604F17800082109F0E7
:106A10002BFC18B9D4F88830980744D494F8D930AE
:106A200099071DD4284609F0AEFE84F8E300B5F8B6
:106A30000530A4F8E430B5F80730A4F8E63094F84F
:106A4000D93043F0020284F8D920DA0702D494F84E
:106A500042312BB11549022204F1DA0009F02BFF73
:106A600094F8D930DB0713D4D4F8883013F002023D
:106A700003D056214020FBF7DBFE43F00203C4F8AD
:106A8000883094F8D630A4F8D420013384F8D63076
:106A900094F89630012B4FF0000003D184F8960053
:106AA00084F8D20038BD0120FCE700BFCB0F010005
:106AB000044B9B685843C3F580534B4303EB203092
:106AC000704700BFD812002070B54568044602F038
:106AD0007FFB85F88700FFF7B5F97F28014685F829
